:020000040800F2
:10000000900500209D010008D7220008ED1B000884
:10001000D5220008B5050008B5280008000000003A
:10002000000000000000000000000000F5230008B0
:10003000CD08000800000000D9220008F7230008BE
:10004000B7010008B7010008B7010008B7010008B0
:10005000B7010008B7010008B7010008B7010008A0
:10006000B7010008B7010008B7010008B701000890
:10007000B7010008B7010008B7010008B701000880
:10008000B7010008B7010008B7010008B701000870
:10009000B7010008B7010008B7010008CF08000841
:1000A000B7010008B7010008B7010008B701000850
:1000B000B7010008B7010008B7010008B701000840
:1000C000B7010008B7010008B7010008B701000830
:1000D000B7010008A9280008B7010008B701000807
:1000E000B7010008B7010008B7010008B701000810
:1000F000B7010008B7010008B7010008B701000800
:10010000B7010008B7010008B7010008B7010008EF
:10011000B7010008B7010008B7010008B7010008DF
:10012000B7010008B7010008B7010008B7010008CF
:10013000B7010008B7010008B7010008B7010008BF
:10014000B7010008B7010008B7010008B7010008AF
:10015000B7010008B7010008B7010008B70100089F
:10016000B7010008B7010008B7010008B70100088F
:10017000B7010008B7010008B7010008000000003F
:10018000B7010008B7010008DFF80CD000F02AF929
:1001900000480047F12E00089005002006488047DF
:1001A00006480047FEE7FEE7FEE7FEE7FEE7FEE75C
:1001B000FEE7FEE7FEE7FEE781240008890100086C
:1001C0002DE9F05F0546002092469B46884606468C
:1001D000814640241BE0284641464746224600F01F
:1001E00094F853465A46C01A914110D31146184606
:1001F000224600F07BF82D1A67EB01084F46224695
:100200000120002100F072F817EB00094E41201E7A
:10021000A4F10104DFDC484631462A464346BDE8E6
:10022000F09FD2B201E000F8012B491EFBD27047CB
:100230000022F6E710B513460A4604461946FFF7B2
:10024000F0FF204610BD0EB540F23341029100216F
:10025000CDE900110A460B4600F076F803B000BD68
:1002600030B5041E71F1000404DB4FF0004440423D
:1002700064EB0101141E73F1000405DB1C464FF012
:100280000043524263EB04038B4208BF824230BDFD
:1002900030B5041E71F1000404DB4FF0004440420D
:1002A00064EB0101141E73F1000405DB1C464FF0E2
:1002B0000043524263EB0403994208BF904230BDB1
:1002C00030B50B46014600202022012409E021FA26
:1002D00002F59D4205D303FA02F5491B04FA02F523
:1002E0002844151EA2F10102F1DC30BD202A04DBF6
:1002F000203A00FA02F1002070479140C2F1200339
:1003000020FA03F3194390407047202A04DB203A77
:1003100021FA02F00021704721FA02F3D040C2F125
:100320002002914008431946704710B5141E73F11E
:10033000000408DA401C41F1000192185B411A43A5
:1003400001D120F0010010BD2DE9F04D92469B46F1
:1003500011B1B1FA81F202E0B0FA80F22032904697
:10036000FFF7C4FF04460F4640EA0A0041EA0B01CA
:1003700053465A46084313D0114653EA010019D098
:10038000C8F140025046FFF7C0FF05460E465046F2
:1003900059464246FFF7AAFF084305D0012004E072
:1003A00020463946BDE8F08D0020054346EAE07658
:1003B0002C4337430A986305E40AA0EB08000022A7
:1003C000FD0A44EA47540A3002D500200146E9E715
:1003D000010510196941DDE9084500196941BDE8C9
:1003E000F04DA2E7064C074D06E0E06840F001033F
:1003F00094E8070098471034AC42F6D3FFF7C8FEE4
:10040000A8630408C8630408464910B54A6822F482
:1004100040324A604A6843681A434A6001684A6841
:1004200022F480724A6001684A68036942EA032242
:100430004A6001684A6822F040724A6001684A686E
:1004400083681A434A6001688A6822F400628A60FD
:1004500001688A68C3681A438A60816A6FF07062B3
:10046000D14201688A6822F070628A6001688A68F5
:100470000CD0836A1A438A6001688A6822F040526D
:100480008A6001688A68C36A1A4301E022F0405218
:100490008A6001688A6822F002028A6001688A68BC
:1004A000037E42EA43028A6090F820100029016826
:1004B0004A680FD042F400624A6001684A6822F438
:1004C00060424A6001684A68174C436A04EB433350
:1004D0001A4301E022F400624A600168CA6A22F409
:1004E0007002CA620168CA6A838B104C04EB035322
:1004F0001A43CA6201688A6822F400728A6001683D
:100500008A6890F8303042EA43228A6001688A683B
:1005100022F480628A6001688A68406942EA802029
:10052000886010BD0023014000E0FFFF0000F0FFE5
:100530007CB504460020019001224021144800F0BF
:100540007CFD01225103134800F077FD124E4FF459
:10055000004500222946304600F06FFD0A20009039
:10056000032301AA21460D4801F006F9012229467C
:10057000304600F062FD9DF8050001029DF806007E
:1005800008430409214606A002F0CAF920467CBDB2
:10059000001402400008024000180240F800002049
:1005A00064617461206973203A3D20256420200A2B
:1005B00000000000FEE7000010B5082000F0EAFB94
:1005C000144CA11D201D01F09BFE002820D0A08806
:1005D0009FED111A00EE100AF8EE400A9FED0F0A87
:1005E00000EE810A9FED0E1ABCEEC00A10EE100A52
:1005F0002080E08800EE100AF8EE400A9FED090A1C
:1006000000EE810ABCEEC00A10EE100A60800120E4
:1006100010BD000048000020574D8B3E000038C23E
:10062000624F283E000010C200B585B00220009045
:1006300000200190012002906946024800F020FC51
:1006400005B000BD0018024000B585B002200121B0
:10065000CDE90210CDE900016946024800F010FC26
:1006600005B000BD001802402DE9F05F0025FFF73E
:10067000EBFF944E00220221304600F0DEFC1920F0
:1006800002F00CFB01220221304600F0D6FCFFF7FD
:10069000CBFF282002F010FB0221304600F0C8FCFE
:1006A00060B189490020087048708870C870BDE842
:1006B000F09F6D1CEDB20A2002F0FEFA02213046D6
:1006C00000F0B6FC08B90A2DF3D3002504E06D1C38
:1006D000EDB20A2002F0F0FA0221304600F0A8FC48
:1006E00008B10A2DF3D300273546022604E0761C14
:1006F000F6B2012002F0E0FA0221284600F098FC50
:1007000038B1642EF3D304E0761CF6B2012002F077
:10071000D3FA0221284600F08BFC08B9642EF3D3EB
:100720001C2002F0C9FA6006040E0221284600F0DF
:100730007FFC08B144F001047F1CFFB2082FD4D322
:10074000A3460027022604E0761CF6B2012002F040
:10075000B3FA0221284600F06BFC38B1642EF3D3C3
:1007600004E0761CF6B2012002F0A6FA0221284627
:1007700000F05EFC08B9642EF3D31C2002F09CFA52
:100780006006040E0221284600F052FC08B144F035
:1007900001047F1CFFB2082FD4D3A24600270226F3
:1007A00004E0761CF6B2012002F086FA0221284607
:1007B00000F03EFC38B1642EF3D304E0761CF6B2B0
:1007C000012002F079FA0221284600F031FC08B934
:1007D000642EF3D31C2002F06FFA6006040E02218F
:1007E000284600F025FC08B144F001047F1CFFB24C
:1007F000082FD4D3A14600262F46022504E06D1C05
:10080000EDB2012002F058FA0221384600F010FC47
:1008100038B1642DF3D304E06D1CEDB2012002F079
:100820004BFA0221384600F003FC08B9642DF3D3DB
:100830001C2002F041FA6006040E02213D463846B3
:1008400000F0F6FB08B144F00104761CF6B2082E65
:10085000D3D3A04600262F46022504E06D1CEDB23E
:10086000012002F029FA0221384600F0E1FB38B1FC
:10087000642DF3D304E06D1CEDB2012002F01CFAEC
:100880000221384600F0D4FB08B9642DF3D31C20B4
:1008900002F012FA6006040E0221384600F0C8FB8E
:1008A00008B144F00104761CF6B2082ED4D30648F1
:1008B00080F8009080F8018080F802B080F803A0F2
:1008C0000471F4E6001802400C00002070478020FC
:1008D00000F0CABA7047000070B5B3F5804F05D07C
:1008E0006FF0704140F82210002070BD50F8224097
:1008F000084B8E891C40D1E9003543EA05138D6809
:1009000089692D0245EA06452B430B43234340F8F2
:100910002230E9E70000F0CFF0B50C6850F8243041
:10092000114A1340D1E90125D1E903672A433E4327
:1009300032434E6932438E693243CE6932430E6A86
:1009400032434E6A32438E6A3243CE6A3243CE6BB2
:10095000096B32430A431A43082D01D142F0400289
:1009600040F824200020F0BD8000F0FF30B500EBFF
:10097000820250688D8900F04043D1E9000440EACA
:1009800004108C68240244EA054420430C8A074D75
:1009900005EB045420430C7D6D0105EB046489696B
:1009A0002043084318435060002030BD0000F0FF92
:1009B0002DE9F04100250E4607462C4605E0384655
:1009C00000F0B0F8641C0544E4B2B442F7D3B5FBC0
:1009D000F6F080B2BDE8F08178B50024009490F87C
:1009E0003C20012A19D0012280F83C200A68072304
:1009F0000568092A13D9EE680A3A02EB42029340CD
:100A00009E43EE600B788A680A3B03EB43039A40EF
:100A10000368DD682A43DA6010E0022078BD2E69A1
:100A200002EB420293409E432E610B788A6803EBEF
:100A300043039A4003681D692A431A614A681F23C9
:100A4000072A13D205686E6B521E02EB8202934096
:100A50009E436E630B790A885B1E92B203EB83039D
:100A60009A4003685D6B2A435A6327E005680D2AA4
:100A700012D22E6BD21F02EB820293409E432E6352
:100A80000B790A88DB1F92B203EB83039A40036859
:100A90001D6B2A431A6311E0EE6A0D3A02EB8202E3
:100AA00093409E43EE620B790A880D3B92B203EBB2
:100AB00083039A400368DD6A2A43DA62164B0568AD
:100AC000144A9D4206D10D68122D03D1556845F494
:100AD0008005556005689D4218D10B68102B01D028
:100AE000112B13D1536843F4000353600968102994
:100AF0000CD10A490A4A0968B1FBF2F101EB810104
:100B0000490000E0491E00910029FBD180F83C40DB
:100B1000002078BD0023014000200140400000205B
:100B200040420F000068C06C704770B504004FF081
:100B3000000503D0206C002610B107E0012070BD35
:100B4000204600F01DF8666484F83C60206CC00606
:100B500010D4206C20F4885040F00200206420461D
:100B6000FFF752FC6664206C20F0020040F00100A8
:100B7000206400E0012584F83C60284670BD000038
:100B800010B586B0044614216846FFF751FB1149A1
:100B9000206888421CD110480021026842F480621B
:100BA0000260006800F4806005900B481438026809
:100BB00042F020020260006800F0200005908020D2
:100BC00000900320CDE901016946044800F058F97E
:100BD00006B010BD0022014044380240001402401B
:100BE0002DE9F041044600680D4681684FF000078A
:100BF00049050BD58068C00508D5206C40F0200061
:100C0000206484F83C700120BDE8F08100F01AFAFD
:100C100006460FE0681C0DD025B100F013FA801BCA
:100C2000A84207D9206C40F00400206484F83C708E
:100C30000320E9E7206800688007EBD521686FF0A2
:100C400012000860206C40F4007020642068816805
:100C500011F0405F13D1217E89B9C16A11F4700F80
:100C600002D0806840050AD4206C20F48070206493
:100C7000206CC00403D4206C40F0010020640020EC
:100C8000C2E7000018B50021009190F83C20012A2D
:100C900007D0012280F83C2002689368DB0702D06D
:100CA00011E0022018BD936843F0010393602A4AC3
:100CB0002A4B1268B2FBF3F202EB420200E0521E32
:100CC0000092002AFBD102689368DB0741D0036CD5
:100CD00040F20164A34343F48073036453685B05EB
:100CE00005D5036C23F4005343F480530364036C71
:100CF000DB0404D5436C23F00603436400E0416445
:100D000080F83C1016496FF02203136049680068B0
:100D1000CA06144906D088421BD1816811F0405F91
:100D200013D016E08842F8D00F4A904203D1D1F890
:100D30000423D206F1D00D4A90420AD1D1F804130F
:100D400001F01F011029E8D303E0816841F08041E0
:100D50008160002018BD00004000002040420F00CC
:100D600000230140002001400021014000220140F9
:100D700090F83510022903D0802141650120704789
:100D8000052180F835100068016821F0010101603B
:100D90000020704770B5044600F054F90546601C09
:100DA00002D004480078044400F04CF9401BA042F3
:100DB000FAD370BD34000020F0B587B01421684626
:100DC000FFF736FA1E480168002937D1012101607A
:100DD0001C480024026842F00102026000680225FB
:100DE000CDE9001500F001000C270326CDE90470C1
:100DF000CDE902466946144800F042F84FF680708B
:100E0000CDE9000502AA694682E8D0000F4800F04B
:100E100037F84CF23370CDE9000502AA694682E842
:100E2000D0000B4800F02CF8E802CDE9000502AA3A
:100E3000694682E8D000074800F022F807B0F0BD0C
:100E40002C000020383802400014024000100240FC
:100E5000000C0240001802400249012008721720CD
:100E600000F050B948000020044910B50A68024259
:100E700002D00860FFF7F0FF10BD0000143C0140F5
:100E80002DE9F84FDFF87CB100224FF001084FF058
:100E9000030A4FF00F090BF1040E00BF0B6808FAAC
:100EA00002F42340A3426ED14D68022D01D0122DD1
:100EB0000ED1D50800EB850CDCF820505607F70E54
:100EC00009FA07F6B5430E69BE402E43CCF8206000
:100ED000066855000F790AFA05FC07F0030726EAB1
:100EE0000C06AF40374307604E68012E05D0022E36
:100EF00003D0112E01D0122E0ED18668CF6826EABB
:100F00000C06AF40374387604668A6430C79C4F3AC
:100F10000014944034434460C6688C6826EA0C068A
:100F2000AC403443C4604C68E40065D5364C256859
:100F300045F480452560246822F0030504F48044CC
:100F40000094324C2E19D6F8084895072F0F09FA4D
:100F500007F5AC432E4DA84201D1002524E02D4DCC
:100F6000A84201D101251FE02B4DA84201D1022545
:100F70001AE02A4DA84201D1032515E0284DA842C8
:100F800002D1042510E037E0264DA84201D1052505
:100F90000AE0254DA84201D1062505E0234DA842CF
:100FA00001D1072500E00825BD402543C6F80858B3
:100FB000DBF800405D464E689C43F60300D51C43B9
:100FC0002C60DEF8004075464E689C43B60300D5A1
:100FD0001C432C600B4D08352C684E689C43F60270
:100FE00000D51C432C60074D0C352C684E689C4383
:100FF000B60200D51C432C60521C102AFFF44EAFE1
:10100000BDE8F88F003C0140443802400030014008
:10101000000002400004024000080240000C0240B0
:10102000001002400014024000180240001C024060
:101030000069084000D0012070470AB18161704703
:101040000904FBE701488068704700003400002075
:1010500002488168027811448160704734000020A2
:101060000B4810B5016841F400710160016841F45A
:1010700080610160016841F480710160032000F02B
:101080008DF8002000F006F800F024F8002010BDD4
:10109000003C024070B50D4D04464FF47A7128783B
:1010A000B1FBF0F00A490968B1FBF0F000F08EFCEA
:1010B00048B9102C07D200222146501E00F04EF8ED
:1010C00000206C6070BD012070BD00003400002065
:1010D000400000200A4808B5016841F480410160E1
:1010E000006800F4804000900548001F016841F04E
:1010F00080510160006800F08050009008BD000041
:1011000044380240002809DB00F01F020121914011
:101110004009800000F1E020C0F8801270470028EC
:101120000DDB00F01F02012191404009800000F119
:10113000E020C0F88011BFF34F8FBFF36F8F70476F
:10114000002809DB00F01F020121914040098000C6
:1011500000F1E020C0F8001170470000F0B40E4B21
:101160001B680C46C3F30223C3F10705042D00D905
:101170000425191D072901D2002300E0DB1E0126EA
:1011800006FA05F1491E214099409E40761E164000
:101190003143F0BC01F0D4BB0CED00E0064900F097
:1011A000070208684FF6FF03184040EA0220034A8E
:1011B00010430860704700000CED00E00000FA05E5
:1011C0002DE9F0470E46050065D0DFF81481D8F808
:1011D0000000F7B200F00F00B04207D288F80070AC
:1011E000D8F8000000F00F00B04254D128683D4C00
:1011F000810712D5400703D5206840F4E0502060F5
:101200002878000703D5206840F4604020602068FB
:10121000A96820F0F000084320602878C0072DD08E
:10122000304968680839012812D0022813D00328F1
:1012300011D00968890700292DDA216821F00301FE
:1012400001432160FFF7FEFE814641F2883A0EE03D
:1012500009688903EFE709688901ECE7FFF7F2FE07
:10126000A0EB0901514502D90320BDE8F0872068B1
:10127000696800F00C00B0EB810FEFD1D8F80010D6
:10128000404601F00F01B14207D90770006800F035
:101290000F00B04201D00120E7E72878400705D5CC
:1012A0002068E96820F4E0500843206028780007AF
:1012B00006D52068296920F4604040EAC10020601A
:1012C00000F036F82168084AC1F30311515CC840A8
:1012D000064908600020FFF7DDFE0020C5E700009A
:1012E000003C02400838024090630408400000209F
:1012F0000448054900680968044AC1F38221515C29
:10130000C84070474000002008380240A06304082D
:101310000448054900680968044AC1F34231515C38
:10132000C84070474000002008380240A06304080D
:10133000154810B5006810F00C02144813D0144979
:10134000042A0FD0082A0ED10F4C241F22682368CC
:1013500002F03F025B0207D52068C0F38810A0FBB3
:10136000010106E0084610BD2168C1F38811A1FB08
:1013700000010023FEF724FF2168C1F30141491C4D
:101380004900B0FBF1F010BD083802400024F40021
:1013900040787D012DE9F84F050076D02878DFF8F8
:1013A000F8B2BE4CC00749D0DBF800105846C1F374
:1013B0008101012908D00068C0F3810002280AD108
:1013C000201D0068400206D52068800336D5686875
:1013D0000028E2D032E06868B0F5803F10D0B0F568
:1013E000A02F206810D020F480302060206820F4E6
:1013F000802020606868A0B1FFF724FE06460CE05C
:10140000206840F48030F4E740F480202060F7E763
:10141000FFF718FE801B642873D820688003F7D577
:101420000CE0FFF70FFE064605E000BFFFF70AFEDF
:10143000801B6428F0D820688003F7D42878DFF870
:10144000608280074FF000093ED5DBF80010584657
:1014500011F00C0F09D00068C0F3810002280BD1F5
:101460008D48001F0068400206D42068800715D50B
:10147000E868012809D111E0E868B8B10120C8F88E
:101480000000FFF7DFFD064605E002E1FFF7DAFDA9
:10149000801B0228C0D820688007F7D520682969FA
:1014A00020F0F80040EAC10020600DE0C8F800908C
:1014B000FFF7C8FD064604E0FFF7C4FD801B0228C5
:1014C0001FD820688007F7D42878000722D5724EED
:1014D000744869696C3671B101210160FFF7B2FD92
:1014E000074604E0FFF7AEFDC01B022809D83068AC
:1014F0008007F7D50EE0C0F80090FFF7A3FD074680
:1015000005E083E0FFF79EFDC01B02287ED830680F
:101510008007F7D42878400768D5DFF87CA100273A
:101520000AF1380ADAF80000C0000BD4DAF800102B
:1015300041F08051CAF80010DAF80000012700F0ED
:1015400080500090584E3068C00510D4306840F488
:1015500080703060FFF776FD009005E0FFF772FDC8
:101560000099401A022851D83068C005F6D54A4E75
:10157000A868683601280FD00528306810D020F000
:1015800001003060306820F004003060A868B8B115
:10159000FFF758FD00900FE0306840F00100F4E7DD
:1015A00040F004003060F7E7FFF74CFD0099411A66
:1015B00041F28830814264D830688007F4D50EE06B
:1015C000FFF740FD009007E0FFF73CFD0099411A4E
:1015D00041F28830814254D830688007F4D42FB16A
:1015E000DAF8001021F08051CAF80010A869C0B3E1
:1015F000DBF80010C1F3810102294AD002284846D5
:1016000007D0C8F86000FFF71DFD00E039E005468F
:101610003AE04746C8F86000FFF714FD064604E0CC
:10162000FFF710FD801B02282BD820688001F7D41B
:10163000D5E907010843A96A1C4A490802EB0141A0
:101640006A6A41EA8211084395F82C1040EA016168
:101650001148001F016001203866FFF7F3FC0546C2
:1016600005E014E0FFF7EEFC401B022809D82068D3
:101670008001F7D50BE000BFFFF7E4FC401B022818
:1016800002D90320BDE8F88F20688001F4D400203F
:10169000F8E70120F6E70000083802400038024071
:1016A00000004742800E4742007000400000FFFFEC
:1016B00070B5040005D00025A56294F8510010B162
:1016C00006E0012070BD84F85050204600F030F84C
:1016D000022084F851002068016821F04001016077
:1016E000D4E901010843D4E90312114308436169B5
:1016F0000843218B01F400710843E1690843216A22
:101700000843A16A084321680860A069042101EA2E
:101710001040616A0843216848602068C16921F46B
:101720000061C1616565012084F85100002070BD31
:1017300000B500680D4987B0884214D10C48016893
:1017400041F4804101600068694600F480400590E2
:101750000E2000900220019002900390052004903A
:101760000448FFF78DFB07B000BD000000380040C3
:1017700040380240002002402DE9F84F044690F81E
:10178000500000270A9E1D4692468B464FF00109E5
:1017900001280ED0012084F85000FFF753FC80464A
:1017A00094F85100616801280CD0B1F5827F07D10F
:1017B00002E00220BDE8F88FA16809B9042801D031
:1017C0000227C2E0BBF1000F27D0BAF1000F24D0EE
:1017D0001DB394F85100042802D0052084F851006C
:1017E00000206065C4F838A0E587A587C4F830B04C
:1017F000E586A5862064606420680168490603D4F4
:10180000016841F040010160E068B0F5006F606878
:1018100005D0E8B3012D46D07FE0012795E008B15F
:10182000012D39D1206B21680088C860206B801C95
:101830002063E08E401EE0862EE0206881688907E4
:101840000FD5E18E69B1B9F1010F0AD1216B098879
:10185000C160206B801C2063E08E401EE0864FF04C
:10186000000920688168C9070CD0E18F51B1C068B8
:10187000A16B0880A06B801CA063E08F401EE087F6
:101880004FF00109FFF7DEFBA0EB0800B04200E0DB
:1018900009E001D3701C50D1E08E0028CDD1E08F3B
:1018A0000028CAD13FE0206B216800780873206BC4
:1018B000401C2063E08E401EE0862EE02068816898
:1018C00089070FD5E18E69B1B9F1010F0AD1216BFA
:1018D00009780173206B401C2063E08E401EE08677
:1018E0004FF0000920688168C9070CD0E18F51B121
:1018F000C068A16B0870A06B401CA063E08F401E05
:10190000E0874FF00109FFF79DFBA0EB0800B04214
:1019100002D3701C01D010E07EB1E08E0028CDD142
:10192000E08F0028CAD142463146204600F008FD2B
:1019300028B101272020606507E0032705E0A068A3
:1019400018B92068C16880680090012084F85100AF
:10195000002084F8500038462CE770B515460E4636
:10196000040003D094F8490010B107E0012070BDD5
:10197000002084F84800204600F01AF804F108011D
:101980002068FEF7C9FF3146A2682068FEF7EEFF27
:10199000D4E901022946236BFEF79EFFA168206867
:1019A00050F8212042F0010240F82120002070BDB3
:1019B000FFF702BA4FF0E0210428086903D020F0B5
:1019C00004000861704740F00400FAE710B5401EBB
:1019D000B0F1807F01D3012010BD4FF0E0246061A1
:1019E0000F21601700F0ACFF0020A06107202061EC
:1019F000002010BD7047000070B5026804461068F2
:101A0000D168536910F00F0F50D003F0010501F4B5
:101A1000907635435DD0C20705D0CA0503D5E26B89
:101A200042F00102E263420705D5DA0703D0E26B18
:101A300042F00202E263820705D5DA0703D0E26BC7
:101A400042F00402E263020705D5DA0703D0E26B35
:101A500042F00802E263E26B002A33D0800604D52C
:101A6000880602D5204600F04BFD20684069E16BF6
:101A7000C0F38010090700D428B3204600F032FDDF
:101A80002068416949061AD5416921F04001416148
:101A9000606BA0B11B490165606BFFF769F9002815
:101AA00010D0606B016DBDE870400847830610D50B
:101AB0008B060ED52046BDE8704000F021BD2046C3
:101AC000FFF798FF70BD2046FFF794FF0020E0630A
:101AD00070BD030606D50B0604D52046BDE8704050
:101AE00000F0B0BE4006F3D54806F1D5D1682046D7
:101AF00021F04001D160202184F8391000F075F800
:101B000070BD0000D524000870B5040004D094F81E
:101B10003900002510B106E0012070BD84F838506E
:101B2000204600F023F8242084F839002068C1689A
:101B300021F40051C160204600F02EFD20680169AB
:101B400021F4904101612068416921F02A0141613D
:101B50002068C16841F40051C160E563202084F829
:101B6000390084F83A00002070BD000010B586B03E
:101B7000044614216846FEF75BFB1849206888423A
:101B800029D11748016841F010010160006800F098
:101B90001000059012481438016841F001010160FD
:101BA0000068694600F0010005904FF4C0600090A5
:101BB000022001900120029003200390072004904E
:101BC0000848FFF75DF9002211462520FFF7C6FA05
:101BD0002520FFF7B5FA06B010BD00000010014047
:101BE000443802400000024070477047FEE70000A2
:101BF0002DE9FF4F144C8A464FF0000B0D9D804697
:101C0000A4F802B0A3EB0A0719E000BFA4F800B0E3
:101C100002990AEB0009A1EB08060AE0404435F8F6
:101C2000022B1FFA89F180B200F010F82088401CC6
:101C3000208020888642F1DC6088401C60806088BB
:101C40008742E3DCBDE8FF8F0600002010B5144694
:101C500000F006F84FF0D8402C210180448010BDE0
:101C60004FF0D8422A231380030A5380C0B2508019
:101C700001205080DF2050802B201080080A5080E7
:101C8000C8B25080012050800F2050807047000063
:101C90002DE9F04F1F468A468046B0F5EC7F2DD8DF
:101CA000BAF5807F2AD8203A02F0FF0B002423E007
:101CB0000C2F07D0124901EB0B100025065D0AEB33
:101CC000040914E00F490BEB4B0001EB8000F4E733
:101CD000F00708EB05001FFA89F180B201D0099ADC
:101CE00000E00A9AFFF7B2FF76086D1CEDB2B5EB83
:101CF000570FEDD3641CE4B2BC42D9D3BDE8F08FDA
:101D00001C380008A83300082DE9FC431026DDF834
:101D10002490984617460C460546B0F5F07F02D948
:101D200000251034A4B2B4F5887F05D900242546D7
:101D30004FF6FF7001F01AF8CDE900893A78334682
:101D400021462846FFF7A4FFBDE8FC832DE9F843B0
:101D5000124E089F994690460C460546B0F5F07F16
:101D600002D900251034A4B2B4F5887F05D9002427
:101D700025464FF6FF7000F0F9FF404600F0B6FF31
:101D800000EB001006EB40024B4621462846921C11
:101D9000009700F091FDBDE8F88300000C3E0008BC
:101DA0002DE9F8411F46154688460446079E11E076
:101DB00080283B462A4641462046009605D9FFF733
:101DC000C5FF1034A4B2AD1C04E0FFF79DFF08343A
:101DD000A4B26D1C28780028EAD1BDE8F881000083
:101DE0002DE9FC4136483749642580880026B0FB40
:101DF000F1F201FB120242F21071B2FBF1F2303249
:101E00008DF80420B0FBF1F201FB12024FF47A715D
:101E1000B2FBF1F230328DF80520B0FBF1F201FB9C
:101E20001200B0FBF5F030308DF806004FF6FF776A
:101E30008DF80760334601AACC217D200097FFF77B
:101E4000AFFF21484FF020088DF8048000780A2465
:101E5000B0FBF5F105FB1101B1FBF4F130318DF868
:101E60000510B0FBF4F104FB110030308DF80600D2
:101E70008DF80760002301AA50217D200097FFF70D
:101E80008FFF12488DF804800023007801AAB0FB70
:101E9000F5F105FB1101B1FBF4F130318DF80510BE
:101EA000B0FBF4F104FB110030308DF806008DF822
:101EB00007608E217D200097FFF772FFBDE8FC814F
:101EC00018000020A08601000C0000200E00002059
:101ED0007FB500241548009401940294124903949C
:101EE00001604FF48031C0E901140461047680F888
:101EF00020400F49C0E90A140125C561C46080F87B
:101F000030404561FEF711FE08B1FEF7E3FC052005
:101F1000CDE90005694602940448FEF75DFD0028FE
:101F200001D0FEF7D7FC7FBD0022014060000020F9
:101F30000100000F00B587B01C216846FEF778F954
:101F400016484FF0204110220160154941600621DA
:101F500081600021C160C0E904128161C161130286
:101F60000162C0E90913C162016341638163416495
:101F70000F20FF230090CDE90103CDE903021120DA
:101F8000CDE90501002269460448FFF7E6FC002878
:101F900001D0FEF79FFC07B000BD0000A8000020A4
:101FA000040100A02DE9F04F87B014216846FEF728
:101FB0003FF9A2480024016841F004010160016872
:101FC00001F004010591016841F020010160016800
:101FD00001F020010591016841F080010160016874
:101FE00001F080010591016841F040010160016844
:101FF00001F040010591016841F0100101600168A4
:1020000001F010010591016841F0020101600168D1
:1020100001F002010591016841F0080101600168C9
:1020200001F008010591016841F0010101600168BA
:1020300001F001010591016841F4807101600168BE
:1020400001F480710591016841F01001016001689F
:1020500001F010010591016841F080010160016803
:1020600001F080010591016841F0080101600068FC
:10207000002200F00800059004217148FEF7DDFF02
:10208000DFF8C0A1002240215046FEF7D6FF4FF4F2
:102090008068002241465046FEF7CFFFDFF8A8B126
:1020A000002201215846FEF7C8FF002248F208012D
:1020B0006648FEF7C2FF48F202070022394664482C
:1020C000FEF7BBFFBE1E002231466248FEF7B5FF99
:1020D000042000900125CDE9015469465848039435
:1020E000FEF7CEFE4FF04009CDF80090CDE9015447
:1020F000694650460394FEF7C3FE0097CDE90154AC
:10210000694653480394FEF7BBFE2027CDE90074CF
:1021100069464B480294FEF7B3FECDF80080CDE946
:102120000154694650460394FEF7AAFE0095CDE996
:102130000154694658460394FEF7A2FE0820CDE9F3
:1021400000050320CDE9024069464048FEF798FEAD
:10215000A803CDE90004694650460294FEF790FEBC
:1021600042200090CDE90154694639480394FEF7B6
:1021700087FE0096CDE90154694636480394FEF780
:102180007FFE4FF400583448CDF80080CDE90104BB
:10219000DFF8C8A069465046FEF772FECDE900742C
:1021A00069462B480294FEF76BFE0096CDE9015478
:1021B000694626480394FEF763FECDF80090CDE90A
:1021C0000154694622480394FEF75AFE50200090BD
:1021D000CDE9015469461A480394FEF751FE2803DD
:1021E0000090CDE90154694650460394FEF748FE3D
:1021F000CDF80080CDE90154694614480394FEF7F8
:102200003FFE802000901648CDE901046946104841
:10221000FEF736FE002211461720FEF79FFF17201B
:10222000FEF78EFF002211462820FEF797FF282098
:10223000FEF786FF07B0BDE8F08F0000303802409F
:10224000001002400014024000080240001C02403E
:10225000001802400004024000001110000C02406F
:10226000000021100C480B494FF4007201604FF43C
:102270008271416000218160C1600161C0E9051285
:102280002022C0E90721416281620A21C162FFF771
:102290000FBA000000380040F80000200C4810B5CC
:1022A0000A4901604FF4E1314160002181600C2254
:1022B000C160C0E904128161C161FFF725FC0028FB
:1022C00003D0BDE81040FEF705BB10BD0010014073
:1022D00050010020FEE770477047000070B50546CA
:1022E0000C460648FEF724F906460448C01CFEF7D3
:1022F0001FF92E802080012070BD0000000000200A
:102300007FB50C46054601A96846FFF7E7FF0028A0
:1023100014D003A902A8FFF7E1FF00280ED0BDF8F2
:102320000000BDF80810084440082880BDF80400EB
:10233000BDF80C10084440082080012004B070BD96
:1023400038B50B46009204460022802100F008F8C0
:10235000002804D0606D40F020006065032038BD87
:102360002DE9F0411D4617460E460446DDF818805B
:1023700008E0681C06D0FEF765FEA0EB0800A84246
:102380000BD255B12068806836EA000030D00020BA
:10239000B842EED10020BDE8F0812068416821F00C
:1023A000E00141606068B0F5827F0BD1A068B0F5B4
:1023B000004F02D0B0F5806F04D12068016821F091
:1023C00040010160A06AB0F5005F09D12068016892
:1023D00021F4005101602068016841F4005101605E
:1023E000012084F85100002084F850000320D2E737
:1023F0000120CDE77047FEF72BBE000070B592B00C
:1024000030216846FDF714FF14210CA8FDF710FFDA
:1024100019480025016841F080510160006800F012
:10242000805011901548016841F4804101600068B6
:10243000022400F4804011900120009000040190DB
:102440008001CDE906400F260896C020CDE9090499
:1024500004200B906846FEF79DFF4FF4A050CDE995
:102460000E50E002CDE90C64109005210CA8FEF797
:10247000A7FE12B070BD000040380240007000405E
:102480001048016841F4700101600F48016841F093
:10249000010101600C4A00210832116002680B4BF7
:1024A0001A400260031D0A4A1A60026822F4802260
:1024B000026005480C300160024958068039086006
:1024C0007047000088ED00E000380240FFFFF6FE94
:1024D0001030002410B5806B0021C185C184FFF746
:1024E00089FA10BD0168CA6822F49072CA60016856
:1024F0004A6922F001024A61202180F83A107047AF
:1025000010B590F83A10222901D0022010BD816840
:10251000B1F5805F11D00169002901681FD04968B9
:1025200001F07F03816A4A1C82620B70C18D491ED3
:102530000904090CC18518D02BE00269816A002AC0
:102540000268526805D0D2B20A80816A491C816251
:10255000ECE7C2F308020A80816A891CF7E74A683F
:10256000816A4B1C83620A70E0E70168CA6822F046
:102570002002CA600168CA6822F48072CA600168D9
:102580004A6922F001024A61202180F83A10FFF7DF
:102590002BFB002010BD00002DE9F041044600682F
:1025A0000169E26821F44051114301612169A06889
:1025B000E26908436169114322680843D16849F21E
:1025C0000C6399430143D16020684169A26921F4F9
:1025D000407111434161E2696425B2F5004F9748AB
:1025E000974922684FF032083FD08A4201D0824298
:1025F0007CD1FEF78DFE00EBC00101EB001061689D
:102600008900B0FBF1F6FEF783FE00EBC00101EBA1
:10261000001061688900B0FBF1F0B0FBF5F06FF0DD
:102620001801484306EB800108EB0110B0FBF5F000
:1026300000F0F006FEF76CFE00EBC00101EB0010AD
:1026400061688900B0FBF1F0B0FBF5F006EB001615
:10265000FEF75EFE00EBC00101EB0010616889002F
:10266000B0FBF1F7FEF754FED2E08A4201D082427D
:102670003DD1FEF74DFE00EBC00101EB001061689B
:102680004900B0FBF1F0B0FBF5F00601FEF740FEAB
:1026900000EBC00101EB001061684900B0FBF1F7ED
:1026A000FEF736FE00EBC00101EB00106168490047
:1026B000B0FBF1F0B0FBF5F06FF01801484307EB09
:1026C000800108EBC100B0FBF5F000F0F80006EB6C
:1026D0004006FEF71DFE00EBC00101EB0010616833
:1026E0004900B0FBF1F7FEF713FE3CE055E0FEF7C2
:1026F000FFFD00EBC00101EB001061684900B0FB79
:10270000F1F0B0FBF5F00601FEF7F2FD00EBC001C1
:1027100001EB001061684900B0FBF1F7FEF7E8FD3E
:1027200000EBC00101EB001061684900B0FBF1F063
:10273000B0FBF5F06FF01801484307EB800108EBA0
:10274000C100B0FBF5F000F0F80006EB4006FEF724
:10275000CFFD00EBC00101EB001061684900B0FB48
:10276000F1F7FEF7C5FD00EBC00101EB0010616859
:102770004900B0FBF1F0B0FBF5F06FF018014843F1
:1027800007EB800108EBC100B0FBF5F000F007009B
:10279000216830448860BDE8F081FEF7A9FD00EBB8
:1027A000C00101EB001061688900B0FBF1F6FEF793
:1027B0009FFD00EBC00101EB001061688900B0FBD8
:1027C000F1F0B0FBF5F06FF01801484306EB800123
:1027D00008EB0110B0FBF5F000F0F006FEF788FD05
:1027E00000EBC00101EB001061688900B0FBF1F063
:1027F000B0FBF5F006EB0016FEF77AFD00EBC0012A
:1028000001EB001061688900B0FBF1F7FEF770FD85
:1028100000EBC00101EB001061688900B0FBF1F032
:10282000B0FBF5F06FF01801484307EB800108EBAF
:102830000110B0FBF5F000F00F00A9E70014014013
:102840000010014090F83910212901D00220704772
:102850008168B1F5805F016A0BD04A1C0262026890
:1028600009785160C18C491E0904090CC1840ED03D
:1028700017E009880268C1F3080151600169002965
:10288000016A02D0491C0162ECE7891CFBE7016880
:10289000CA6822F08002CA600068C16841F0400145
:1028A000C1600020704700000148FFF7A5B8000094
:1028B00050010020FEE700002DE9F04F88B080466F
:1028C000DDF844B09A46894600206D4632F8021B76
:1028D00025F8101049BA25F81010401C80B21028B5
:1028E000F4D30026002409EB060700BF35F81600D4
:1028F000B9B2A040000408EB040080B201D55246F2
:1029000000E05A46FFF7A2F9641CA4B2102CEDD3E4
:10291000761CB6B2102EE5D308B0BDE8F08F0000EB
:102920000FB4054B10B503A9044A029800F028F82B
:1029300010BC5DF814FB0000212D000844000020AD
:102940000907090E002804DB00F1E02080F80014DC
:10295000704700F00F0000F1E02080F8141D704770
:1029600002E008C8121F08C1002AFAD17047704758
:10297000002001E001C1121F002AFBD170470000B6
:102980002DE9FF4F89B09B460446002506E0252827
:102990000BD05A460B999047641C6D1C2078002878
:1029A000F5D10DB02846BDE8F08F0027B8460122CA
:1029B000474900E0074314F8013F203B02FA03F0C7
:1029C0000842F7D120782E2819D114F8010F47F0CA
:1029D00004072A280ED06FF02F022078A0F13001D2
:1029E00009290CD808EB880102EB410100EB010832
:1029F000641CF2E70A98641C50F8048B0A90207853
:102A00000028CED0642808D0692806D075281ED0AA
:102A10005A460B9990476D1C58E00A994FF00A09E5
:102A200001C90A91002802DA40422D2102E039054D
:102A300004D52B218DF82010012103E0F90704D0E3
:102A40002021F7E78A4608AE0DE00021FAE70A994F
:102A50004FF00A0901C90A91F7E74946FDF730FC32
:102A6000303106F8011D0028F7D1ADEB060000F16A
:102A70002009780701D44FF00108C84502DDA8EB12
:102A8000090000E000208046002706E008A85A461A
:102A9000C05D0B9990476D1C7F1C5745F6DB04E029
:102AA00030205A460B9990476D1CB8F10001A8F1EF
:102AB0000108F5DC05E016F8010B5A460B99904722
:102AC0006D1CB9F10001A9F10109F4DC641C65E792
:102AD000092801002DE9FC47544C002620252088B8
:102AE0004FF47848A0F237104FF001094FF48C7A78
:102AF0004FF4FC67712875D26088FDF7A4FB9FED49
:102B00004C1B53EC112BFDF7C3FB1DD26088FDF766
:102B10009AFB9FED491B53EC112BFDF7A1FB13D240
:102B2000A068012860D0C4F808908DF804508DF892
:102B300005508DF806508DF807603B4601AA5021DC
:102B400050460093FFF72CF96088FDF77CFB9FED62
:102B50003C1B53EC112BFDF79BFB1DD26088FDF74E
:102B600072FB9FED391B53EC112BFDF779FB13D250
:102B7000E068012843D0C4F80C908DF804508DF81B
:102B800005508DF806508DF807603B4601AA8C2150
:102B900050460093FFF704F96088AC281CD9FDF774
:102BA00052FB9FED2B1B53EC112BFDF759FB13D25E
:102BB000206901282ED0C4F810908DF804508DF8AB
:102BC00005508DF806508DF807603B4601AAC821D4
:102BD00050460093FFF7E4F808341FA094E80E0075
:102BE000FFF79EFEBDE8FC87A6608DF804508DF8C7
:102BF00005508DF806508DF8076043469EE7E66065
:102C00008DF804508DF805508DF806508DF807604A
:102C10004346BBE726618DF804508DF805508DF8CA
:102C200006508DF807604346D0E7000018000020EA
:102C3000EC51B81E85EB50403333333333335C40B3
:102C40009A99999999B95F40713D0AD7A3806540D7
:102C500048E17A14AEE76C4062746E2069732064B8
:102C60006F776E20200A2062746E31203A2564202E
:102C70002062746E323A2564202062746E333A20EA
:102C8000256420200A00000010B504460420FEF749
:102C900091FE0148046010BD1400002070B5054687
:102CA00000244FF47A7603E0304600F005F8641C07
:102CB000AC42F9D370BD000070B54FF0E0240022A3
:102CC00065690949A36909684843A1699942FCD02B
:102CD00002D2A3EB010302E0A5EB010633441A4440
:102CE0000B468242F1D370BD1400002030B502467D
:102CF00000200A490AE015789D4205D101EB440401
:102D000053786478A34208D0401C80B200EB0014D2
:102D100011F81430802BEED8002030BD0C3E000896
:102D200003490A685206FCD5C2B24A6070470000E7
:102D30000010014070B50C4D00244FF4967601222E
:102D400040212846FEF779F90120FEF723F80022FA
:102D500040212846FEF771F90120FEF71BF8641C9C
:102D6000B442ECDD70BD0000001802404FF0D841C5
:102D70002A220A8000224A804A8001224A80DF22D9
:102D80004A802B220A8000224A804A8001224A80FF
:102D90000F224A802C220A800A8000224FF4FF333F
:102DA0004880521C9A42FBD37047000038B501227C
:102DB00051024D48FEF741F9642000224FF4FA73A6
:102DC00005E000920099491C00919942FAD3401EF7
:102DD000F7D2002000F0E3FA44494FF0D84488804D
:102DE0002B202080002060803220FDF7D3FFE220DE
:102DF00020801D2060800220608004206080E02010
:102E0000208001206080FDF7C5FFE02020800320A6
:102E100060800520FDF7BEFF012020800520FDF722
:102E2000B9FFE620208009206080D920608016202C
:102E30006080B02020802020608000206080012001
:102E40006080DF206080012060800F206080002093
:102E50006080B420208002206080132060800020E9
:102E600060802B2060800A20608000206080082025
:102E7000608000206080B6202080012060802020BB
:102E80006080002060800C2060800A20608000202C
:102E9000608004206080BA20208005206080B820F7
:102EA0002080072060800120608036202080002064
:102EB00060803220FDF76EFFBE20208006206080FB
:102EC0008020608001206080F02060800020608091
:102ED0006080D02020800D206080F02020800320A2
:102EE00060802920208038BD0014024006000020A8
:102EF0001CB5FEF7B5F8FFF781FAFFF753F8FFF7B7
:102F000019F8FFF7AFF9FFF7C9F9FEF7E1FFA020C5
:102F1000FFF7BAFEFFF74AFF58A0FFF701FD5C4834
:102F2000002100904FF48D734FF4F0720846FEF7C5
:102F30005FFE20208DF804008DF805008DF8060056
:102F40004FF4784400264FF48C758DF807602346C3
:102F500001AA502128460094FEF722FF234601AA29
:102F60008C2128460094FEF71BFF234601AAC821A6
:102F700028460094FEF714FF46A0FFF7D1FC494F06
:102F8000494C4A4D4CF2503844F6206947F2625A97
:102F90004748FDF777FE0A214548FDF721FE0A2143
:102FA0004348FDF705FD40F6E4414843000BA0EB24
:102FB000001101EB080081B2A180A06810B13DA012
:102FC000FFF7AEFCA188494503D2206908B100F0A3
:102FD00089F8A188514503D9206908B100F0F4F8B7
:102FE000C820FDF7D7FEFDF73FFB3878142803D241
:102FF000E06808B1FFF79EFE38781B2803D9E06827
:1030000008B1FFF797FEA06850B139782CA0FFF700
:1030100087FCA06820B12D4801782DA0FFF780FC27
:10302000FEF7DEFEC820FDF7B5FE287A0128AFD1F5
:103030001420FDF7AFFE80212948FDF7F9FF002895
:103040004FF0170003D0FEF77BF82E72A0E7FEF7D3
:1030500066F8FDF7B1FA58B128882080688860804A
:10306000C820FDF797FEFFF735FD2E806E802E728B
:103070002E721720FEF764F88AE700003D3D3D3DC3
:103080003D696E69743D3D3D3D3D3D0A00000000D7
:1030900008420008696E6974206F6B21212121218B
:1030A000210A00000C000020180000204800002029
:1030B000600000204C696768743D25640A000000C8
:1030C00054656D703D25640A000000000E0000206C
:1030D00048756D69646974793D25640A00000000D3
:1030E000001802402DE9F04700244FF48055334E7C
:1030F000DFF8CC80DFF8CC906F0001222946304603
:10310000FDF79BFF012239464046FDF796FF00225E
:1031100010214846FDF791FF002240214846FDF767
:103120008CFF0120FDF736FE002229463046FDF7D0
:1031300084FF012239464046FDF77FFF012210211E
:103140004846FDF77AFF002240214846FDF775FF0B
:103150000120FDF71FFE002229463046FDF76DFFD6
:10316000002239464046FDF768FF012210214846FB
:10317000FDF763FF012240214846FDF75EFF012075
:10318000FDF708FE012229463046FDF756FF0022D2
:1031900039464046FDF751FF002210214846FDF711
:1031A0004CFF012240214846FDF747FF0120FDF773
:1031B000F1FD641C1E2CA0DDBDE8F087000C024070
:1031C000001C0240001002402DE9F04700244FF49B
:1031D00080556D4EDFF8B481DFF8B4916F000122A5
:1031E00029463046FDF729FF002239464046FDF7C3
:1031F00024FF002210214846FDF71FFF0022402136
:103200004846FDF71AFF0120FDF7C4FD01222946BB
:103210003046FDF712FF002239464046FDF70DFF0C
:10322000002210214846FDF708FF012240214846B0
:10323000FDF703FF0120FDF7ADFD002229463046D2
:10324000FDF7FBFE002239464046FDF7F6FE002260
:1032500010214846FDF7F1FE012240214846FDF7C6
:10326000ECFE0120FDF796FD002229463046FDF7D1
:10327000E4FE002239464046FDF7DFFE0122102120
:103280004846FDF7DAFE012240214846FDF7D5FE0B
:103290000120FDF77FFD002229463046FDF7CDFED7
:1032A000002239464046FDF7C8FE0122102148465B
:1032B000FDF7C3FE002240214846FDF7BEFE012077
:1032C000FDF768FD002229463046FDF7B6FE0122D3
:1032D00039464046FDF7B1FE012210214846FDF770
:1032E000ACFE002240214846FDF7A7FE0120FDF775
:1032F00051FD002229463046FDF79FFE0122394646
:103300004046FDF79AFE002210214846FDF795FE43
:10331000002240214846FDF790FE0120FDF73AFDCE
:10332000012229463046FDF788FE012239464046F3
:10333000FDF783FE002210214846FDF77EFE0022A5
:1033400040214846FDF779FE0120FDF723FD0122CB
:1033500029463046FDF771FE002239464046FDF70A
:103360006CFE002210214846FDF767FE0022402136
:103370004846FDF762FE0120FDF70CFD641C1E2C83
:103380007FF72DAFBDE8F087000C0240001C024023
:10339000001002404FF0D8404188408870474FF0FD
:1033A000D8410880FFF7F6BF0000000000000000D1
:1033B00000000000000004040404040400040000F1
:1033C00000140A0A000000000000000000001414AD
:1033D0003F140A3F0A0A000000041E1505060C14DB
:1033E000150F0400000012150D0A142C2A120000FB
:1033F0000000040A0A1E1515093600000002020129
:103400000000000000000000002010080808080864
:103410000810200000020408080808080804020038
:1034200000000004150E0E15040000000000040446
:10343000041F04040400000000000000000000005D
:103440000002020100000000001F00000000000058
:10345000000000000000000000020000001008084A
:10346000080404020202010000000E1111111111E2
:10347000110E00000000040604040404040E000001
:1034800000000E1111080402011F000000000E11BF
:10349000100C1010110E00000000080C0A0A091E82
:1034A0000818000000001F01010F1010110E00008D
:1034B00000000E09010F1111110E000000001F097C
:1034C000080404040404000000000E11110E111180
:1034D000110E000000000E1111111E10120E00003E
:1034E00000000000040000000004000000000000D4
:1034F0000004000000040400002010080402040876
:1035000010200000000000001F00001F000000004D
:1035100000020408102010080402000000000E1130
:10352000110804040004000000000E111915151DF7
:10353000011E0000000004040C0A0A1E12330000E1
:1035400000000F12120E1212120F000000001E11C6
:1035500001010101110E000000000F1212121212DF
:10356000120F000000001F120A0E0A02121F0000B4
:1035700000001F120A0E0A020207000000001C12BF
:1035800001013911120C000000003312121E121238
:103590001233000000001F0404040404041F000090
:1035A00000003E0808080808080907000000371254
:1035B0000A060A0A1237000000000702020202028D
:1035C000223F000000001B1B1B1B151515150000DA
:1035D00000003B1216161A1A1217000000000E11F6
:1035E00011111111110E000000000F12120E020233
:1035F0000207000000000E1111111117190E18001A
:1036000000000F12120E0A121237000000001E11E5
:1036100001060810110F000000001F150404040427
:10362000040E00000000331212121212120C0000DD
:1036300000003312120A0A0C0404000000001515E1
:10364000150E0A0A0A0A000000001B0A0A04040AEE
:103650000A1B000000001B0A0A040404040E0000F8
:1036600000001F0908040402121F0000001C0404CB
:103670000404040404041C000002020204040808F8
:1036800008100000000E08080808080808080E00C6
:1036900000040A000000000000000000000000001C
:1036A000000000000000003F0004000000000000D7
:1036B0000000000000000000000C121C123C000082
:1036C00000000302020E1212120E000000000000A1
:1036D000001C1202021C000000001810101C121224
:1036E000123C000000000000000C121E021C000032
:1036F00000003804041E0404041E00000000000042
:10370000003C120C021E221C00000302020E1212C8
:10371000123700000000040000060404040E00003C
:1037200000000800000C0808080808070000030251
:10373000023A0A0E123700000000070404040404D1
:10374000041F000000000000000F151515150000F3
:1037500000000000000F12121237000000000000ED
:10376000000C1212120C000000000000000F1212D8
:10377000120E020700000000001C1212121C10386A
:1037800000000000001B060202070000000000000D
:10379000001E020C101E000000000004040E0404B1
:1037A0000418000000000000001B1212123C000070
:1037B000000000000037120A0C04000000000000A6
:1037C0000015150E0A0A000000000000001B0A0484
:1037D0000A1B0000000000000037120A0C0404035A
:1037E00000000000001E0804041E00000018080865
:1037F0000804080808081800080808080808080845
:103800000808080800060404040804040404060068
:103810000225180000000000000000000000000069
:103820000000000000000000000000000000000890
:1038300008080808080800001818000000486C2450
:103840001200000000000000000000000000002442
:1038500024247F1212127F12121200000000081C92
:103860002A2A0A0C1828282A2A1C080800000022E4
:10387000251515152A585454542200000000000C38
:103880001212120A76252911916E00000006060414
:1038900003000000000000000000000000402010B5
:1038A000100808080808081010204000000204084A
:1038B000081010101010100808040200000000008A
:1038C00008086B1C1C6B08080000000000000000CA
:1038D000080808087F080808080000000000000029
:1038E00000000000000000000606040300000000C5
:1038F00000000000FE0000000000000000000000CA
:1039000000000000000000000606000000008040EB
:1039100040202010100808040402020000000018D3
:103920002442424242424242241800000000000861
:103930000E08080808080808083E00000000003CBF
:103940004242422020100804427E00000000003C59
:103950004242201820404042221C0000000000206B
:103960003028242422227E20207800000000007EBF
:103970000202021A26404042221C000000000038C9
:103980002402021A26424242241800000000007E4F
:103990002222101008080808080800000000003C57
:1039A0004242422418244242423C000000000018D7
:1039B0002442424264584040241C000000000000A1
:1039C0000000181800000000181800000000000097
:1039D000000000080000000000080804000000408B
:1039E000201008040204081020400000000000001D
:1039F00000007F0000007F000000000000000002C7
:103A00000408102040201008040200000000003CC0
:103A10004242464020101000181800000000001C10
:103A2000225A555555552D42221C00000000000811
:103A300008181414243C224242E700000000001F32
:103A40002222221E22424242221F00000000007C4D
:103A50004242010101010142221C00000000001F3E
:103A60002242424242424242221F00000000003FE6
:103A70004212121E12120242423F00000000003F9A
:103A80004212121E12120202020700000000003C45
:103A90002222010101712122221C0000000000E706
:103AA000424242427E42424242E700000000003E63
:103AB0000808080808080808083E00000000007C04
:103AC00010101010101010101010110F00000077BF
:103AD00022120A0E0A1212222277000000000007AA
:103AE0000202020202020202427F0000000000778E
:103AF000363636362A2A2A2A2A6B0000000000E3CE
:103B000046464A4A52525262624700000000001C78
:103B10002241414141414141221C00000000003F3F
:103B2000424242423E020202020700000000001C24
:103B30002241414141414D53321C60000000003F91
:103B40004242423E1212222242C700000000007C84
:103B50004242020418204042423E00000000007F22
:103B60004908080808080808081C0000000000E7C9
:103B70004242424242424242423C0000000000E7D0
:103B80004242222424141418080800000000006B8C
:103B9000494949495555362222220000000000E7D4
:103BA000422424181818242442E70000000000775B
:103BB0002222141408080808081C00000000007ED7
:103BC0002120101008040442423F00000078080839
:103BD0000808080808080808080878000000020219
:103BE000040408080810102020204040001E101077
:103BF000101010101010101010101E00003844008B
:103C000000000000000000000000000000000000B4
:103C10000000000000000000000000FF0006080097
:103C20000000000000000000000000000000000094
:103C30000000003C4278444242FC000000000003C7
:103C40000202021A26424242261A00000000000028
:103C50000000003844020202443800000000006006
:103C6000404040784442424264D8000000000000D6
:103C70000000003C427E0202423C0000000000F0D6
:103C80008808087E08080808083E000000000000B8
:103C90000000007C22221C023C42423C0000000347
:103CA0000202023A4642424242E700000000000C93
:103CB0000C00000E08080808083E00000000003054
:103CC00030000038202020202020221E0000000389
:103CD00002020272120A1612227700000000000E81
:103CE0000808080808080808083E0000000000004E
:103CF0000000007F9292929292B7000000000000B4
:103D00000000003B4642424242E700000000000043
:103D10000000003C42424242423C000000000000E1
:103D20000000001B26424242221E02070000000043
:103D30000000007844424242447840E00000000025
:103D4000000000774C040404041F00000000000081
:103D50000000007C42023C40423E000000000000A7
:103D60000008083E080808080830000000000000AD
:103D7000000000634242424262DC0000000000009A
:103D8000000000E74224241408080000000000009E
:103D9000000000EB494955552222000000000000B8
:103DA0000000007624181818246E0000000000009F
:103DB000000000E74224241418080807000000004F
:103DC0000000007E22100808447E000000C0202071
:103DD00020202010202020202020C00010101010B3
:103DE00010101010101010101010101000060808FD
:103DF0000808081008080808080806000C32C20065
:103E0000000000000000000000000000A1F600001B
:103E10007FFC7FFC7FFC7FFC7FFC7FFC7FFC7FFCCA
:103E20007FFC7FFC7FFC7FFC7FFC00000000D2BA9F
:103E30004040202027FE09208920527C524416A8A9
:103E40002B982250E220223022502288230E220476
:103E5000BEA700000FF008100FF008100FF00810B8
:103E600000007E7E42427E7E424242427E7E42424E
:103E70000000C7FD0000F9FE0900490449844948D3
:103E800049287D10051805283524C54405842900D6
:103E900011FE0000B6AF002000207E20002000FCB4
:103EA000FF2410241024242422244F44FA44408464
:103EB000011402080000CAB5010000803FFE28047A
:103EC000468804800880068004807FFE00800140D0
:103ED0000220041018186010D1E90000F8400840D2
:103EE00048A04890490E4BF07C00048406443548B5
:103EF000C548041017FE08000000B3C900A00090D8
:103F000000803FFE208020803E88228C2248225064
:103F100022202A604492410A86060002CEAA00802E
:103F200010800C8004847FFE01040104018401449C
:103F30000224022404040844102820100000CFB0FA
:103F400000003FFC0004080404040304011400649E
:103F5000018406043804100400040024001400083E
:103F6000B9DF200023F822482FFE3248AA48ABF8D8
:103F7000A00023F8224822482248224820B02308E3
:103F80002C04A3AC000000000000000000000000B2
:103F900000000000000000000000300030001000B1
:103FA00020000000D7A8010001003FF80200020035
:103FB000FFFE040008200FF00020004002800100F6
:103FC000008000400000D7A220801040104007FE73
:103FD000804048404840104013FC2040E0402040D2
:103FE000204020402FFE2000C1A60100010001005A
:103FF00001007FFC01040104010401040204020425
:1040000004040404080410282010C1BF1FF010107D
:104010001FF010101FF00000FFFE11101FF0111014
:104020001FF001001FF80100FFFE0000B3C900A04F
:10403000009000803FFE208020803E88228C224815
:10404000225022202A604492410A86060002BECDF8
:1040500010200828FF24002400207FFE42504250F8
:104060007E5008502C502A904A9289122A0E100035
:10407000C3CE082008207EFE08301C682AAECB2460
:104080000C2007F808100C203240018003000C00BF
:104090007000CFEB100010FC1084FEFC388434FC60
:1040A0005484508490FC0000010008842882281267
:1040B00067F00000A3A10000000000000000100055
:1040C0001000100010001000100010001000100070
:1040D000000010000000B5E70100010001003FF8FA
:1040E000210821083FF82108210821083FF821086C
:1040F0000102010200FE0000D7D300003FF00020C3
:1041000000400080010001000104FFFE01000100E9
:1041100001000100010005000200BFAA00007FFEAF
:104120000420042004200420FFFE04200420042096
:10413000082008201020202040200000B7A2020004
:104140002240223022107FFE2400040007E00C20D1
:104150000A200A20114020804160861C1808B0E522
:10416000101C11E011001100FD0011FC39843548CC
:1041700055485230921012301448108E110400002D
:10418000CDE2082008200F201120112021305228D4
:104190008A240C2204220820102020204020802085
:1041A0000020CFDF10401850104C204823FC48401E
:1041B000F84013FE20407C48003000221CD2E30A65
:1041C00000060002B2E2400227C224428452455255
:1041D00055521552255225522552C552410242824E
:1041E0004242444A4804CAD40020402820243024B3
:1041F00027FE0020E02027E0212021102110210AA5
:1042000029CA3606200200000010E0011A01011B35
:10421000DFFFDFFFDFFFDFFFDFFFBFFFBFFFBFFF0E
:10422000BFFFDFFFBFFFBFFFDFFFFFFFF29C9094E8
:10423000FFFFB9D6A84A0532C4292111A63A6E84D7
:10424000D2ADB2A5D2A5F3AD34B614AEF4AD14B66A
:1042500015B635BE97C6F9D619D79BE7DCEF5BE7F5
:10426000F9D65BE7BDEFBDEF9CEFBDF77AE775C60A
:10427000F2B512B672BEB6CEB7CE75C655C6D7D693
:10428000D7DED7DED7DE96D676CEB7D6D7D655C60A
:1042900033BE74CEF6D6F7D679DF59DF76BEB6C612
:1042A000D7CE18D779DF14BECB6B084BF4A577BEF9
:1042B0008942E31885296529AC733BE7FFFFFFFFBF
:1042C000BFF7FFFFFFFFFFFFFFFFFFFFD5AD684216
:1042D000A942D18C76BEF4ADF08CAE84B3A5F4A522
:1042E000519D30955195729D55B6F4AD15B677BE7A
:1042F00097C6D4ADB3A515AED3A592A5319572A539
:1043000076C6B7CED4B572A576BE3195729DD4ADC2
:10431000529D8F84B08CF6B554A50B5BA7314D63CD
:10432000FDDEFFFFFFF7FFF7FFF7FFFFFFFFFFFFD8
:10433000FFFFFFFFDFFFDFFFDFFFDFF7DFF7DFF765
:10434000DFF7DFFFDFFFDFF7BEF79DEF9DEF9DF7A4
:10435000BDF79DF7BDF7BEF7BDF7BDF79DF77DEF44
:104360007DEF7DEF9DF79DF77CF79DF77DF79DF73E
:104370009DF77CF79DFF7EEF9FEF9EEF7EEFBFF7EF
:10438000DFF7FFFF18BE0F7C3CDFFFFFDEF7FEFF0D
:10439000FEFFDDFFDEFFFEFFDEFFBEFFDEFFFEFFF6
:1043A000DEFF9DF79DF7BEF79EFFBEFFBFFFBEFF7E
:1043B000BEFFBEFF9DF7BEFF9DF79DFF9DF79DF7DA
:1043C000BDFF7DF75DEF7DEF7DEF7DEF7DEF7DEF55
:1043D0005DEF5CEF3CEF3CEF5DEF5DEF5DEF5DEFC0
:1043E0003CEF5DF75DEF3CEF3CEF5DEF5DEF5DEFC8
:1043F0005DEF9EF7DFFF1BE70F8417C6FFFFFFFF90
:10440000FFFFFFFFFFFFFFFFFFFFFFFFDEFFDEFFFE
:10441000BDFFBDFFBDFFDDFFBDFFBDFFBEFFBDFF9B
:10442000BEFFBEFFBEFF9EFF9DFFBDFFBDFFBDFFE8
:10443000BEFFBDFFBDFFBEFFBDFF9DF79DF79DFF0A
:104440009DFF9EFF9DFF7DF77DF79DFF9EFFBEFFB9
:104450009EFFBEFFDFFF9EFFBEFFDFFFDFFFFFFF10
:10446000DFF7FFFFFFFFFFFFDFFFD294EF7BDFF7F8
:10447000FFFFFFFFFFFFDFF7FFFFFFFFFFFFFFFF74
:10448000FFFFFFFFFFFFFFFFFFFFFFFFFFFFFFFF3C
:10449000FFFFDFFFFFFFFFFFFFF7FFF7FFFFFFF764
:1044A000FFF7FFF7FFF7BFEFBFEFBFF7BEF7FFFF65
:1044B000FFFFFFFFFFFFFFFFFFFFFFFFFFFFFFFF0C
:1044C000FFFFFFFFFFF7FFFFFFFFFFFFFFFFFFFF04
:1044D000FFFFFFF71BDF7DE71CD73CD759BED39406
:1044E000BEF7FFFFFFFFFFFFFFFFFFFFFFFFFFFF25
:1044F000FFFFFFFFFFFFFFFFFFFFFFFFDFF7DFF71C
:10450000FFFFFFFFFFFFFFFFFFFFBEEF139DB29412
:10451000DBD6DFF71CD7BAC6BBC61DD73DDFD294AA
:10452000C84ACC7372A5139D4C63CD7B16BEDDF7D4
:10453000D8D6329D93AD35BE15BED4B5D3AD56C6D3
:1045400096C6B3A51195F3ADF4B5B5AD1BD7BAC6F4
:10455000F5ADB4AD329D94A516BED2AD91A5719DB9
:10456000919D3095AF84CF8CF19494AD908C684A36
:10457000A95254ADFFF7FFFFFEFFFFFFDFFFFFFF74
:10458000FFFFFFFFFFFFFFFFFFFFFFFFFFFF5CEFEE
:10459000FDC63DCFF8AD55A5D6B5BDF7FEFFFEFF74
:1045A000DEF7FBD69AC63DD71DD79CC67FE73EDF18
:1045B000DCCEBBC6FCCEFBCE3BD717B62F7CC94AA0
:1045C000C529473A873AE5294C63B6B51CE73CE76D
:1045D000FFFFFFFFFFFFFFFFFFFFFFFFFFFFFFFFEB
:1045E000FFFFFFFFFFFFFFFFFFFFFFFFFEFF708CDE
:1045F00053A5FFFF0D7425322632A4214111053247
:10460000495BCF8CB2A5B29DB3A514AE14B615B656
:10461000F4AD15B615B656BED8CEF9D63ADF9BE73F
:104620007BE71BDF3BDF9DEFBDEFBDEFDDF7BBEFB2
:10463000F7D634BEF3B533BE95C6B6CE95CE54C6C6
:1046400054CEB5D695D6B6D6D6DED6D6D6D6F7D6ED
:10465000B5D6F2BD75CED6D6D7D618DF39DFB7CEF0
:1046600055C697CE18D759E7D7D60F8D453A4E7C09
:10467000B9CEAD6BC2180221E120064254AD1BE752
:10468000DCDE79CEB9D6DAD678C678C6FACED18C49
:10469000683A26324E7C76BEF4ADAF8CAF8CD4AD8A
:1046A000D3AD10951095519DB3A515B6B4AD97C671
:1046B00056BE15B6D4AD15B6B3A593A593A552A510
:1046C00072A535BE97CE52A593AD93A5D08C529DC1
:1046D000D4AD93A58F84B08CD5B533A5894A242158
:1046E000EB5A38C67AC6F7B538BE18B6F7B5F7AD87
:1046F00018B618B6F7B5D6ADF7B5F7B5D6ADB6ADB1
:10470000B6AD95A5B6ADD7B5D7B595A575A575A523
:1047100075A554A5349D349D339D349D139D349DC2
:10472000139D549D549DD294F39C139DF294F29446
:10473000139D139D139D139D139D349D149D349DB6
:1047400034A574A5F2949184B5AD539D74A574A558
:1047500074A5549D74A574A5549D549D549D54A551
:10476000549D549D34A5349D149D33A554A513A583
:10477000139D339D339D33A533A533A533A553A591
:1047800053A533A533A533A533A533A533A5139D71
:10479000139D13A5139D13A513A5F39C139D13A59A
:1047A00034A534A534A513A513A534A513A5139DCD
:1047B00013A513A554ADD29C3084D29454A534A52E
:1047C00054A554A574AD74A574A574A554A554A599
:1047D00054AD33A533A533A5139D34A554A5339DFE
:1047E000339D339D34A5139D139D33A5339D33A570
:1047F00033A533A5139D33A5139DF39CF29CF29C26
:10480000F39CF39CF29CF294D294129D139D139D01
:10481000139D139D33A5339D33A5139D349D139D87
:10482000139D54A5F294F294139D4F842F7C339DD5
:1048300074A5F394F394F394F394F394D28CD294F8
:10484000139D139DD28CD294F394D294F294F3944A
:10485000D394D394F394F394F394F3941395149D15
:10486000349D349D559D549D1395D394F39CB394DE
:10487000B294F39CD39434A554A5F39CF39C34A533
:1048800034A595ADB6AD95A595AD95AD75AD75ADA8
:1048900054A574A575A5139DF38CF7ADF28CF29415
:1048A00099CE99C6B9CEDAD6B9D6BAD6DAD6FADE64
:1048B000FBDEFBDEFADEFAD61ADF1BDF3BDFDAD6E1
:1048C0005CE7DAD695B55BE75CE7918CF2943CE760
:1048D0009EEFDBD6DACEFBCE7EDF3DD71074483AB2
:1048E000495BF094AF8C2B5BAD6B77CEFDFF57C669
:1048F000D19494AD36C615BE94ADB4B556C636C681
:10490000329DD09472A591A551A5B5AD5CE738BE96
:1049100093A5329DD5B537BE94AD91ADB2AD509D46
:104920000F95AE8C109572A573A5AC6B63294B6384
:104930001BE7FFFFFFFFFFFFFEFFFFFFFFFFFFFF84
:10494000FFFFFFFFFFFFFFFFFFFFFFFFFFFFFFFF77
:104950005DD7FCCE9AC6B6AD75AD99CEFFFFDFFF31
:10496000DBD69ACE3DDF9EDF1DCF3ABE7FE73EDF2E
:104970005DD71DD79ABEB6A5EF6B0F74CD6B6421C2
:104980008421884226322A5BFAD63BDFB9D61BE760
:10499000D9CE57BE36BE37BE36BE36BE37BE36BEA1
:1049A00036BE16BE37BE16BE37BE18BE79CED6B5D9
:1049B0000A5B94AD4F7C2E74128DB07CC842884245
:1049C000C52962196A5BD084529D729DD4ADF4AD45
:1049D00015B614B6F4AD35B656BE57BEB7CE18D719
:1049E0007AE77BE73ADF3BDF7CE79DEF9CE7FEF76A
:1049F000DDEF3ADF56BE13B653BE33BE73C6B4CE38
:104A000053C653CE74CE73CEB4D6D5D6B5CE94CECF
:104A100095D695D633CE13C675CE96D6D8DE19E781
:104A2000B8DE36CEF4C597D6BAF716DFEB73664A12
:104A3000F5BDFDFF12A54331C0204229E1200B6BDB
:104A400013A5B19470847084507C707C9084F28C37
:104A50000E74C94AA742AB6B36BE35BED08CCF8C24
:104A6000B3ADB3AD309DF094F09493ADB4AD16BE3C
:104A700077CEF4B5F4B5D4ADF5B552A593AD94ADFC
:104A8000B4B553A516BE57CE53A532A553A5B4ADA4
:104A9000309DD3B571AD8E8C6E8CF4BDF09C2642EA
:104AA000E118474A32A594ADF294F284F28412855B
:104AB000138D538D539553957495949D949D949D0A
:104AC000B49D949D969DB69DF7A5D6A518AE38B613
:104AD00017AE18AE17AEF7AD38AE17AE58B699BED2
:104AE00058B6F38C138D58B637B617B6F6ADD6ADAB
:104AF000F6ADD6AD95A595A595A595A595A574A555
:104B0000739D73A5D5AD6F7C2E74F18C3295118D8C
:104B100012853285538D538D538D748D538D33850E
:104B2000338D338D338D138512853295118DD0845D
:104B3000128D739D52955295B4A5939D939D939D0F
:104B4000729573A5B4ADB4ADF5B515B615B615B679
:104B5000F5B5F5B515B6F5B5D5B5D5B5B4AD94ADD6
:104B600053A5339D53A574A594AD53A574A574A501
:104B700094AD94ADB4AD339DEF7371841395D28C25
:104B8000F394B28CD28CB28CD28CD28CD28CD28C4C
:104B9000128DF28C128D138DF28CF38CD284B18431
:104BA000D284B284D284D284D284D284B184B184B7
:104BB000D184D284D284F28CF28CF28CF28CF28C7E
:104BC000F38CF28CF18CF184D184F18CF18CF28C29
:104BD000F184D184D184F18CD184907CB184B18C66
:104BE000B18C1195D18CB08C0D74EC6B4E7C4F7CDC
:104BF0004F7C90849084507C4F7C4F7C4F7C0E7413
:104C00000E740E740E744F7C2F742F744F7C0E74C0
:104C1000ED6BED73ED6BCD6BED6BAC63AC6BCD6B96
:104C2000AC638C63CC63CC6BED6B70845184AE6BE6
:104C30008E6B71847184307C7184CF738E6B4D6305
:104C40008E6BD28CF5AD93A574A554A554A574A50F
:104C500074A574A5749D539D0E740E742E74739D6B
:104C600094A594A594A5539D94AD73A553A573A540
:104C700073A573A573A593A5729D93A553A594AD34
:104C800074A553A5F294B4ADD08CF19473A537BE3E
:104C9000FBD61BD71AD75CDF99BE3074CE6B2F7C46
:104CA0000C74EC738A6BD1941ADFBDF774B5D29C87
:104CB000F6BD57CEB5B594B517C658CEB5B59194D7
:104CC000919452A552A571A592AD56C6FADE17BEB3
:104CD00052A5D5B536C674AD53ADB2B550A5109D2D
:104CE000CF94309D92AD2D84053A60080963D9DEDA
:104CF000FAE6B8D698D698CE98CE97CE97CEB8CEBC
:104D0000B8CEB8CED9D6D8D6F9D63ADF1ADF3ADF40
:104D10003CD7FBCEFBCE18B6359DD7B53DE7DCD6EC
:104D20001DD75EDF5EDF7EDFDCCE5ABE3EDF9FE753
:104D30005EDFB7A55174CB4A65193074B184C629BA
:104D4000683A0A53052ACC6398CE77C616BE15BEBC
:104D5000D6A53495D38C1395F38CD28CF38C139504
:104D6000F38CF394F394F394F3941495139595A51D
:104D7000549D8D632B5338B69DDFFAC65495AD63B1
:104D8000CA4AC5292211C421AC636E7C3195729D3B
:104D9000B3A5D3AD14AE15B6F5AD15B656BE96C6D1
:104DA000B7CE19D75BDF7BE77CE75CDF9DE79DE74C
:104DB000BDEFFEF7BDEFF7CE33BEF3B533BE13BE86
:104DC00034C674C654C674CE33C633BE95CEB5CE83
:104DD00094D674D654CE74CEF3BDF3C556CED7DE7A
:104DE00059EF5AEF96D615C696CE74C68E8CF19CA6
:104DF000D5B5718CD6B537C6884AE218A1104008DF
:104E00006631F39C949D749D749D74955395539550
:104E1000B5A5D18CE94A263A2A5BB4AD16B6D29430
:104E2000D18C329D94A5F1949084D18C95A554A5F4
:104E300017BE78C6D5AD739DF5ADF5B5539D329DC2
:104E400053A5D5B553A516BE16BE1295339DD5AD47
:104E5000B3A5D08C529D72A58F846F8494AD918C34
:104E6000E63181084B5BF6B5D6AD96A5B7ADB7A5D3
:104E700076A5B7A518B639BE38BE59BE38BE38BEFD
:104E800039BE59BE38BE59BE99C6DACE3CDF5CE7A2
:104E90003CDF3CDF5CDF7DE79EEF7DE77DE77CE785
:104EA000BDEFFAD6B9CE9DE79DEF5CE75CDF3BDF57
:104EB0003CDF1BDF99CE79C679BE79BE99C699BE13
:104EC00079BEBAC6BAC63074CE63F7AD38B6F7ADA0
:104ED000D6ADF6B5F6B5F6B5F6B537BE58BE78C65A
:104EE00017B6B6ADD7B538BE38BE58B678BE17B609
:104EF000F7AD58BE58BE58BE99C678BE78BEB9C682
:104F000078BE58BE58BE78BED9CEFAD6FAD6FAD6F2
:104F1000D9CEB9CEDACEDACEB9CE99C699C699C66F
:104F200059BE58BE59BE79C658BE17B658BE59BEEE
:104F300059BE58BE99C6B6A52C53517417AED7ADFD
:104F4000B6A5B6A5B6A596A5B6A5B6A596A596A5E9
:104F5000B5A5B6A5F7AD17AED6A5B6A5959D969DF8
:104F6000B6A5969D969DB6A5B6A5969DB6A5D6A5C1
:104F7000D6A5D6A5D6A517AEF7ADF6A517AE38B609
:104F8000F7ADF6ADF7ADD6A5D7ADD6A5F6ADF6AD76
:104F9000F7ADF7ADF7AD17AED6A5959DD6ADF7AD8C
:104FA00017B6F6AD17B616B6707C0A53B18495A540
:104FB000549D549D34953495349534953495F38CA3
:104FC000D28CB284D38C559D759D759D559D34951D
:104FD000549D749D549533955495F28CD28CD28403
:104FE000F28CD28C9184F28C95A5F38C9184749D73
:104FF000D28CB9C6339DFAD67CDF95A5B9CE918CFB
:10500000F29499C6DACEFBD6FCD6DACE3CDF7DE749
:105010005CDF3CDFFBD63CDF34950C53D294D9DE09
:10502000B9D678CE78CE98D657CE57CE37CE37CEA3
:1050300017CE17C617C636BE57BE37BE38BED7AD59
:10504000718417BEF6AD918474A5BACE18B6BACEE7
:10505000FCCEBAC658BE759D10743174DCCEBACE83
:10506000ED73AC6B53A55DE7FBD670A571AD14BEB7
:1050700034C6B2B5D3B534BE34C651A5AE940F9D77
:1050800050A572A552A592AD109D98CE79CED6B5F9
:1050900016BEF5B553A553A573ADF09CAF8CF09437
:1050A00051A58F8CA74A2219263A4F8494AD53A557
:1050B000B194D194D194D194D28CD18CD18CB18C27
:1050C000D18CD18CB18CB084B18CD18C7084507C5B
:1050D000128DB9C6FBCE79BE5AC6DDD6DDD61EDF2F
:1050E0005FDF5EDF5EDF7EDFFBCEBBC65DDF39B636
:1050F0003595AF63082A2411A2001074F38CEA4A94
:105100008D5B2F742A538B5B73A552A5319D72A5BD
:10511000DBC6BBC659B639B679BE79B659B679BEC3
:105120007ABE59BE79BE7ABE79BE79BE99C699C695
:105130001BD737B66D5BD7A57DD71CCF9ABE3495EC
:10514000F38C9184C84A0532A842463A49536D7C93
:10515000EF8C719D929D929DD3A5F4ADF4AD14B6E4
:1051600035BE56BEB8CE3BDF5BDF1BD7D9CE3ADFAC
:105170005ADF5ADFBBE7BBEF17D734BEF2B5D3B562
:10518000F3B5F3B513BE54C613BE13BE54C695CEC5
:1051900073CECD9CEE9C54CE54CEF3C5F3BD51A539
:1051A00076CE38E7F7DE95C6B2AD70A5109DB4ADEA
:1051B000D9D6139DCE6B17B6FAD6ED73C9520B5BD9
:1051C000694AAE6B98B6B9BE78B698BE58B678BE86
:1051D00078BED6A5749DF294AD6BD18CB9CE78BE55
:1051E000B5ADF6B5F6AD37BEF6ADD6ADF7AD38B662
:1051F00078BEDBCEFBCE57B657B698C678BE57BE44
:1052000017B678C678C658BEDACE78BE17B637B6A7
:105210001ACFF6ADF5AD98C657BE339D17B679C611
:10522000349DEF73EE6BD6ADBAC69AC67ABE7ABE1F
:105230007ABE9ABEBBC6BBC6BBC6DBCEDBCEBBCE80
:10524000BBCEDBCEDBCEBACEDBCEFBCE1BD71CD7A4
:105250001CD71CD7FCD61CD73CDF3DDFFCD6FBD6C9
:10526000FBD61CD7FBD6DACEFBD6FBD6FBD6DBCEE5
:10527000DBCEDACEBAC6BAC6BAC6BAC6DAC6BAC6BD
:10528000BABEBAC69ABEF7ADD6A599BEDBC6BAC637
:10529000BAC699C699C699C699C699C69AC6BAC6D3
:1052A000BACE9ACEBACE9AC69AC6BAC6BACE9AC65E
:1052B00079BE9AC69AC6BAC6DBCEDBCEBAC6DBCEFC
:1052C000BBCEBACEBAC6BAC6DACEFACEDACEDACE0D
:1052D000BAC6BAC6BAC6DACEBAC6BAC6BAC6BAC6A6
:1052E0009AC6BAC6BAC6BAC679BE9AC69AC69AC687
:1052F00079BE79BE9AC679BEB6A5F7A518AE9ABE94
:105300009ABE9ABE79BE59B679BE9ABE79BE9ABE89
:105310009ABE99BEBAC6DAC69AC69AC69ABE9ABE4E
:105320009ABE79BE79BE9ABE9ABE59BE9ABE9AC638
:105330009AC69AC69ABE9ABE79BE79BE9AC6BAC6AF
:1053400079BE58B679BE79BE58B659B679BE9ABEFE
:1053500059BE59B659BE59B639B639B659B659B605
:1053600059B658B617B617AE759D138D17B638B621
:1053700017AED6A5D7A5D7A5B7A5B7A5B7A5B7A585
:10538000B7A5B7A5969DB7A5F8ADB7A5969DD7A526
:10539000D7A5D7A5D6A5D6A5F7ADB6A5B6A5B6A56A
:1053A000D6A5F7ADB6A5D6A558B633953395D6A5EF
:1053B000349599C6F28C3BD75CDF759DDACED6ADBD
:1053C00074A538BEDBC61CD71CD7DBD63CDF3CDF60
:1053D0001CDFFCD61CDF3DDF18B6717C58BE5BE7D6
:1053E000DAD6DADEB9D6B9D699D699D699D6B9D65B
:1053F000B9D698CE99CEB9CE99CEBACEBACEBBCECA
:10540000F7AD3495D38C18B6BAC6FBCE3DD71CD7B2
:10541000FCCEDBC6759D927C159597A5FCCEBEE7AC
:10542000749DF394FAD6DBD634A534B6B6CE55C601
:1054300014B614B696C675C692A5319DD3B515BEE1
:10544000D3B5D4B5B4AD329DF4B55CDF79C6F7B54C
:10545000F6AD94A5B5AD74A5F19411951195329D55
:10546000CD73E531063A9084B8CEF9D657BEF6B57D
:10547000F6B516B617BE17B617B6F7B5F6B5F6AD4C
:10548000F6ADF6ADD5AD959DB5A5B5A5549D549594
:10549000739D78BE3BD77DDFBFE79FE77FE77FDF68
:1054A0007FDF9FE77EDFBEE71BCFD28C3074AA423E
:1054B000927C759DA621A6218A3A34955495EE6377
:1054C0000F6C0E6CAC630D74529D92A5509D91A50E
:1054D0001DCFDCC6DBBEDCC6DCC6BBBEDBBE1CC76C
:1054E000FCC6DCC6BBC6DCC6FCCEFBCEFAC6FACE1A
:1054F0003CD73BD7717418A65CCF9AB6BABE969DBE
:105500006D5B6C5B09532A538B5B495B695B0B6C6E
:105510004B748C7C6C7C8D7CAE84CF8431955295A1
:105520005295529D739D739D739D729D929D729D28
:1055300092A592A592A592A5B2A53095AE84CF8CE6
:10554000CF94AF8CAE8CAE94EF94EF940F950F95F3
:10555000CC84E9734B7C0E950E95CE94CE8CCE8C7C
:105560006D840B74CE8CCE844D74B1A534B6D4AD9D
:105570007395128D5495F284538DD59DF6A5F6AD95
:10558000D6AD96A57695B79DB7A5B79DB7A5D8A575
:10559000F8ADF8ADF8AD59B639B619B6F7AD17AEE6
:1055A00037AE37AE57B657B658B679BE58B638AEDE
:1055B00079B658AE99BE9AB67AB67AB659AE18AEE2
:1055C00039B639B639B639B639B69ABE18AE19AE4B
:1055D00059B679B6BABE79B679BE79BE59B659B65A
:1055E000BBBEFBC6FBBE59B659AE39AE59AE59AEBD
:1055F00059B659B659B639AE7AB659B618AE38AEAC
:1056000038AE18AE39AE39AE39AED7A5F8A519AE59
:10561000F8A5D8A5F8ADF8ADD8A5D8A5D7A5F8AD0B
:10562000D7A5B7A5D8A5D8A5B7A5F8A5F8A518A654
:10563000F8A5B89DD8A518A618AE38AE39AE39B6BB
:1056400039B618AE18AE59B659B659BE39B659B6AC
:10565000BAB69AAE9AAEBAB69AAE79AE9AAEBBB6B2
:10566000BBB67AAE7AAE9BAEBBBE7BC65AC67AC616
:105670009AC6BBCEBBCE9BCE7AC65AC65AC65AC6AF
:105680009BCE9AC69AC6BAC679BE79BE79BE79BE95
:105690007AC69ABE9AC679BE59B69ABEBBC67ABEBB
:1056A0007ABE9ABEDBC6DBCE9AC69AC67ABE9AC6C8
:1056B000BBC6BBC69BC6DBC63CD71BCF1CCFDBC65D
:1056C000BAC6DBC6BAC6BAC6DBC6BAC69ABEBAC6C0
:1056D0009AC67AC69AC69AC69AC6BBCEFBCEDBCE0F
:1056E000BACEBAC6DBCEDBCEDBCEDBCE9AC679C66F
:1056F0009AC69AC69AC69AC6BAC6BACEDBCEDBCED0
:10570000DBCE9AC659BEBBCEDBCEBBCE9BC69BC6FC
:10571000DCCEBBCEBBCE7BC6DCCEDCCE9BC69AC677
:105720007ABE9ABEBAC6BBC6DBC6DBC679BE7ABE37
:10573000DBC6DBC6DCC6DCC6FCCEDCC6BCC6DCC653
:10574000DCC6DCCEFDCEFDCE9BC69BBEBCC69BBEE2
:105750005ABE7BBE9BBE7ABE7BBE5ABE5ABE7BBEC5
:105760009BC69BC6BCC6BBCEBBC6DCCE9BC6BBC65F
:10577000DCCE9BC6DCCE7BC63ABE9BC67BC6FCCECF
:10578000DCD67AC679BE79BE59BE7AC67AC639BE2B
:105790007AC65ABE7ABE9AC6DBCEDCCEDBC6D9BE8E
:1057A0001AC7DABEB9BE99BE79BE78BE99BEB9BE77
:1057B00099BE99BEBAC6B9C678C679BE79C69AC628
:1057C000DCCE7ABE1CCF1CCFBBC6DBC6BBC6BBC6FD
:1057D000BCC6BBC69BC6DCC69BC65ABE7ABE9AC6B2
:1057E000BAC67AC69AC679C69AC67ABE9ABE9ABE12
:1057F0009AC6DBC69AC659BE59BEBBC69BC67ABE00
:10580000BBC6BAC698BEB9C6B9C6DACE9ABE79BE0C
:1058100058B679BE79BE37B637B637AE37B6F6ADBD
:105820003395F28C99C6FACE58B637B6F6AD16AEA9
:1058300037B637B617AED7ADD7ADF7ADF6ADF6ADD7
:10584000F6ADF6ADD6A5D6A517AEF6ADF7ADD6AD8D
:10585000D5AD57B698C699C6BAC67ABE7BBE7BBED2
:105860007ABE59B69ABE79BE5495CD630E74CE6396
:10587000959DD6A5EF6B5074EF6B138D959D917C24
:105880002F6CCD630E6CAC638A63EB6B0A744B7C3C
:1058900037AE7495D59DF6A574957495B59DF6A50E
:1058A00017AED5A5F6A558B678B636B636B637B61D
:1058B00098BE58B6707458AE3CCF79B6FBC6D7A523
:1058C000C62106322E7CF194F08C108D0F8DCE8483
:1058D000CE84CE7CAD7CAD7CCD84EE84EF8CCF8449
:1058E000CF84108DF08C108DEF8CEF84EF8CEF8CCB
:1058F0000F8DEF8C0F8D0E8DEE8CEE8C0E95CD8472
:105900008D84AD848D84AD848C846B7C6B7C8C8425
:105910008B7CAC84CC84AC848C848D84AE8CEF8CFA
:10592000695B85424C746D746C74F1AD53B6B19D76
:105930000C6C6D748F740D644D6C0C644D6C6E74D6
:105940006D744E744E746E7C8F7C8F7CB0848F7CB3
:10595000AF7CD084907CAF7CF184B084D0844E6CDA
:10596000F084CF7C10851085CF7CD07CD07CD07C1F
:10597000D07CF084AF74D07CF07C8F746E746E6CCD
:10598000AF7CD07CD07CB07CD07C11852D6C2E6C13
:10599000B17C907CD184F184D184D184B07CD184D9
:1059A000B07CB17C128DF284D17CD184F184F184FD
:1059B0001285F184F184F184F184D17C90748F7C20
:1059C0006F7C4F746F744F742F6C4F74B17CD184A3
:1059D00050745074B17CD284917C707C917C917CA9
:1059E000B184917C7074717C707C917CB17CB27C50
:1059F000917C717471747074907CB07CB17CD28431
:105A0000D284917CB184B1847074707C907CB184B8
:105A1000D284D284F28CF38CD284D284F28CF28C35
:105A2000D284D284D28CF38CD38CF2941295339599
:105A30003395138D33953395F28CF28CF28C13954C
:105A4000549D339D339D3395F394F28CF28CF28CFC
:105A5000D28C13953395F28CF28C128DF38CF28CE0
:105A6000F28CF38C33953495138DD28C138D349541
:105A700054955495139534953495349534953495BF
:105A80001495139513953495349534953495349D28
:105A90003495148D14953495149513953495349547
:105AA000349534955495349534953495F38C92848B
:105AB0009184D28CF38CF38C1395F38CB284717C2B
:105AC0009284918491841295F28CD28CF28CD38C36
:105AD000138DF28CF38C1395349534953395138D87
